:030000000208E90A
:10000B00020121E4FDEDB40800504D90001DF828CD
:10001B00287302003502003902004102004502003C
:10002B004D02005102005902005DD2A28002C2A211
:10003B00D2A3D2A48022D2A28002C2A2C2A3D2A4F3
:10004B008016D2A28002C2A2D2A3C2A4800AD2A2DC
:10005B008002C2A2C2A3C2A4740C2DF8E6F5807F65
:10006B00647E001201DEE4F5800DED6408709622CB
:10007B00BC000BBE0029EF8DF084FFADF022E4CC69
:10008B00F875F008EF2FFFEE33FEEC33FCEE9DEC32
:10009B00984005FCEE9DFE0FD5F0E9E4CEFD22ED78
:1000AB00F8F5F0EE8420D21CFEADF075F008EF2FC2
:1000BB00FFED33FD4007985006D5F0F222C398FDB3
:1000CB000FD5F0EA221201CE20B1207F107E27122D
:1000DB0001DE20B116B200300011E4F514740C25CA
:1000EB0014F8E4F60514E514B408F230001AA2B0C3
:1000FB00B3920330030E20010BE5087F81B481021C
:10010B007F248F08A2039201200003120800120023
:10011B000E12015A80B2C0E0C0D020002D758CFCAD
:10012B00758A18050AE50A70020509C394E8E50902
:10013B0094034016750900750A00E50BD394004033
:10014B0004150B8005750B15B202D0D0D0E032C26E
:10015B00B5C2B4C2B6300004AF088023E50BD3940C
:10016B000D40047F818018E50BD3940A40047F4136
:10017B00800DE50BC3940340047F2480027F221281
:10018B000190D2B522AD07E4FC7E007480A8040870
:10019B008006CEA2E713CE13D8F8FFEDFBEF5BC3BF
:1001AB006001D392B4D2B6C2B60CBC08DCD2B5C2D5
:1001BB00B52202090000010B15C182C100010881A3
:1001CB00C18100438901758CFC758A18D2A9D2AF05
:1001DB00D28C22EF1FAC0670011E4C70F6223F062C
:0E01EB005B4F666D7D077F6F777C395E7971A3
:10080000E50BD3940D404AE50B24F5FFE434FFFEDD
:100810007C007D0A12007BAA07E50B24F5FFE43477
:10082000FFFE7C007D0A12007BAB05E50B24F2FF86
:10083000E434FFFE7C007D0A12007B8F15E50B245B
:10084000F2FFE434FFFE7C007D0A12007B8D1680EF
:1008500078E50BD3940A402AE50B24F5FFE434FF36
:10086000FE7C007D0A12007BAA07E50B24F5FFE45D
:1008700034FFFE7C007D0A12007BAB058A158B16C7
:100880008047E50BC394034037E50B24FDFFE434B8
:10089000FFFE7C007D0A12007BAA07E50B24FDFF0A
:1008A000E434FFFE7C007D0A12007BAB05E50B758E
:1008B000F00A84F515E50B75F00A8485F0168009B9
:1008C000E4FAAB0BF515850B16EA9001E993F50EEA
:1008D000EB93F50FE4F50DF50CE51593F512E51620
:1008E00093F513E4F510F51122787FE4F6D8FD7541
:1008F00081200209300200D0E493A3F8E493A340DE
:1009000003F68001F208DFF48029E493A3F854078A
:10091000240CC8C333C4540F4420C8834004F45685
:10092000800146F6DFE4800B0102040810204080BD
:100930009001BDE47E019360BCA3FF543F30E50904
:10094000541FFEE493A360010ECF54C025E060A8BD
:1009500040B8E493A3FAE493A3F8E493A3C8C58250
:10096000C8CAC583CAF0A3C8C582C8CAC583CADFBE
:05097000E9DEE780BE96
:00000001FF
