:100F2300020A000A1C1A003F0006005B004F00661D
:100F3300006D007D0007007F006F0000000100408E
:0E0F430000080208000102360001021800003A
:100D6900EF64014E7008C2A2C2A3C2A48D80EF64D1
:100D7900024E7008D2A2C2A3C2A48D80EF64034EB2
:100D89007008C2A2D2A3C2A48D80EF64044E700879
:100D9900D2A2D2A3C2A48D80EF64054E7008C2A26C
:100DA900C2A3D2A48D80EF64064E7008D2A2C2A35A
:100DB900D2A48D80EF64074E7008C2A2D2A3D2A438
:100DC9008D80EF64084E7008D2A2D2A3D2A48D8080
:010DD90022F7
:0E0FB700ED25E0241AF8E6FC08E6FD020D69BF
:100800008C4D8D4EEF64014E7033C2A2C2A3C2A4C0
:10081000EFB54E0AEEB54D067C007D0180047C00EC
:100820007D00EB25E0241AF8E6F58308E62DFDECC3
:1008300035834D60047D8080027D008D80EF6402F1
:100840004E7033D2A2C2A3C2A4EFB54E0AEEB54D8C
:10085000067C007D0180047C007D00EB25E0241AED
:10086000F8E6F58308E62DFDEC35834D60047D80C8
:1008700080027D008D80EF64034E7033C2A2D2A34C
:10088000C2A4EFB54E0AEEB54D067C007D01800492
:100890007C007D00EB25E0241AF8E6F58308E62DC0
:1008A000FDEC35834D60047D8080027D008D80EFFE
:1008B00064044E7033D2A2D2A3C2A4EFB54E0AEEA6
:1008C000B54D067C007D0180047C007D00EB25E0B9
:1008D000241AF8E6F58308E62DFDEC35834D600417
:1008E0007D8080027D008D80EF64054E7033C2A252
:1008F000C2A3D2A4EFB54E0AEEB54D067C007D0131
:1009000080047C007D00EB25E0241AF8E6F58308DE
:10091000E62DFDEC35834D60047D8080027D008DE9
:1009200080EF64064E7033D2A2C2A3D2A4EFB54EBC
:100930000AEEB54D067C007D0180047C007D00EB55
:1009400025E0241AF8E6F58308E62DFDEC35834D05
:1009500060047D8080027D008D80EF64074E7033DF
:10096000C2A2D2A3D2A4EFB54E0AEEB54D067C00CA
:100970007D0180047C007D00EB25E0241AF8E6F57B
:100980008308E62DFDEC35834D60047D8080027D7B
:10099000008D80EF64084E7031D2A2D2A3D2A4EFB2
:1009A000B54E0AEEB54D067E007F0180047E007FC5
:1009B00000EB25E0241AF8E6FC08E62FFFEE3C4F9A
:0B09C00060047F8080027F008F802297
:070FCD00E475F001020C15B0
:100E18008B4A8A4B894C900002120BDD641D45F009
:100E28007013120FCDAB4AAA4BA94C900002E4757F
:100E3800F001020C9AAB4AAA4BA94C900002E47547
:060E4800F001120C4D2226
:100E4E008B478A488949900004120BDD641E45F0D9
:100E5E007013120E18AB47AA48A949900004E47506
:100E6E00F001020C9AAB47AA48A949900004E47518
:060E7E00F001120C4D22F0
:100E84008B448A458946900006120BDD641745F0B1
:100E94007012120E4EAB44AA45A946900006E4F522
:100EA400F0020C9AAB44AA45A946900006E475F0FA
:050EB40001120C4D22AB
:100EB9008B418A428943900008120BDD643B45F05F
:100EC9007012120E84AB41AA42A943900008E4F5BE
:100ED900F0020C9AAB41AA42A943900008E475F0CC
:050EE90001120C4D2276
:100EEE008B3E8A3F894090000A120BDD643B45F031
:100EFE007012120EB9AB3EAA3FA94090000AE4F55B
:100F0E00F0020C9AAB3EAA3FA94090000AE475F09D
:050F1E0001120C4D2240
:100DDA007C007D0A120B887C007D0A120B887F0634
:090DEA007E00120FB7AF39AE38DC
:040DF300AB07AA069A
:100DF7009000007C007D0CAF03AE02120B76C3E5BA
:100E0700829FE5839E5009E51945187003A380E387
:010E170022B8
:100FA40020B20F0509E5097002050875080054010F
:030FB400F509221A
:1009CB00753800753905753A00753B2D7B007A003B
:0E09DB00790C120EEEE50945086003020A9E33
:1009E900F53CF53DF53C753D01D3E53D953BE53CD1
:1009F900953A4003020A9EAE10AF117C007D0A129F
:100A09000B887C007D0A120B887F08120DEAAE1054
:100A1900AF117C007D0A120B887F07120DEAAE0E1A
:100A2900AF0F120DDAAE0EAF0F7C007D0A120B88E4
:100A39007F05120DEAAE0CAF0D7C037DE8120B8821
:100A49007C007D0A120B887F04120DEAAE0CAF0DF3
:100A59007C007D64120B887C007D0A120B887F0361
:100A6900120DEAAE0CAF0D7C007D0A120B887C00DA
:100A79007D0A120B887F02120DEAAE0CAF0D7C00C5
:100A89007D0A120B887F01120DEA053DE53D7002D2
:050A9900053C0209F21A
:0B0A9E00E509640145086003020B75C8
:100AA900F53CF53DF53C753D01D3E53D953BE53C10
:100AB900953A4003020B75AE12AF137C007D0C1200
:100AC9000B887E007F0ACFCDCFCECCCE120B887C8F
:100AD900007D0A120B887F08120DEAAE12AF137C53
:100AE900007D0C120B887E007F0ACFCDCFCECCCEF5
:100AF900120B887F07120DEAAE14AF15120DDAAE8C
:100B090014AF157C007D0A120B887F05120DEAAE21
:100B190016AF177C007D0A120B887C007D0A120B28
:100B2900887F04120DEAAE16AF177C007D0A120BFE
:100B3900887F03120DEAAD2FAC2E7F027E00120DC5
:100B490069120DEFD3E513940CE51294007C004073
:100B5900047D7380027D777F017E00120D69120D7D
:0C0B6900EF053DE53D7002053C020AB2BC
:010B7500225D
:03000300020F7D6C
:100F7D00C0E0C0D075D000C006C007E509450870B7
:100F8D0005FE7F0180047E007F008E088F09D0074B
:070F9D00D006D0D0D0E032F5
:100F5200D2AFD2A8D288750C07750DE8750E007550
:100F62000F0975100075111875120075130A7514A2
:0B0F72000075151A7516007517372260
:030FD400020F52B7
:080FC500120FD41209CB80FBCE
:03000000020CDD12
:0C0CDD00787FE4F6D8FD75814E020D24EE
:100B7600EF8DF0A4A8F0CF8CF0A428CE8DF0A42E93
:020B8600FE224D
:100B8800BC000BBE0029EF8DF084FFADF022E4CC51
:100B9800F875F008EF2FFFEE33FEEC33FCEE9DEC1A
:100BA800984005FCEE9DFE0FD5F0E9E4CEFD22ED60
:100BB800F8F5F0EE8420D21CFEADF075F008EF2FAA
:100BC800FFED33FD4007985006D5F0F222C398FD9B
:050BD8000FD5F0EA2238
:100BDD00BB0110E58229F582E5833AF583E0F5F056
:100BED00A3E0225009E92582F886F008E622BBFE33
:100BFD000AE92582F8E2F5F008E222E5832AF58379
:080C0D00E993F5F0A3E993223D
:100C1500BB010789828A83020CC7500B09C5F027DF
:100C2500F7C5F01937F722BBFE0D09F8E325F0F3F8
:100C3500C5F019E338F322F889828A837401932574
:080C4500F0C5F0F8E493382239
:100C4D00BB010DC58229C582C5833AC583020CC778
:100C5D005011C58229F808E5F026F618F5F0E58261
:100C6D0036F622BBFE11C58229F808E225F0F5F013
:100C7D00F218E23582F222F8E58229F582E5832A1F
:0D0C8D00F58374019325F0F5F0E49338220F
:100C9A00F8BB0111E58229F582E5833AF583E8F08C
:100CAA00E5F0A3F0225009E92582C8F608A6F02249
:0D0CBA00BBFE09E92582C8F2E5F008F22230
:100CE900020FC5E493A3F8E493A34003F68001F24D
:100CF90008DFF48029E493A3F85407240CC8C3330C
:100D0900C4540F4420C8834004F456800146F6DFDA
:100D1900E4800B0102040810204080900F23E47E38
:100D2900019360BCA3FF543F30E509541FFEE493CF
:100D3900A360010ECF54C025E060A840B8E493A396
:100D4900FAE493A3F8E493A3C8C582C8CAC583CAC1
:100D5900F0A3C8C582C8CAC583CADFE9DEE780BE79
:010F5100009F
:100CC700C5F0F8A3E028F0C5F0F8E58215827002B8
:060CD7001583E038F02255
:00000001FF
