:0E0A340002080000020C0000010B00010A0085
:100A1300E4FDFCC3ED9FEC9E50070DBD00010C806F
:010A2300F2E0
:010A240022AF
:0409BB00AB07AA06D6
:1009BF00E4F583F5827C007D0CAF03AE02120930A3
:0C09CF00C3E5829FE5839E5003A380E9EE
:0109DB0022F9
:1009DC00D2AFD288D2A8D2A9438901D2A7D2A6E499
:0D09EC00F50CF50DF508F509F50AD28C2281
:0A0A43001209DCE4F58075A0FF2223
:10099800EF8EF012094209B118E709AE30CF09B459
:1009A8007A85000009B7B2A022B2A122B2A22275AC
:0309B800A0FF227B
:03000B000209F9EE
:1009F900C0E0C0D0B2A7758CFC758A67E50BC394BB
:0A0A0900325002050BD0D0D0E032CD
:03000300020800F0
:10080000C0E0C0F0C083C082C0D075D000C000C0BE
:0308100006C00718
:10081300AF0B7E00758CFC758A67750B00050AB2F9
:10082300A6C3EF9432EE9400400B750AFE750C00DC
:10083300750D00805BD3E50A6480F8748098502DB1
:10084300E50A6480949F5025C3EF9402EE94004020
:100853003F741F950AFF7E007401A807088005C333
:1008630033CE33CED8F9420DEE420C8023C3E50AD2
:10087300648094A0401A850C08850D09750C0075D9
:100883000D00750A00C2A5AF09AE08120998D2A5DA
:10089300D007D006D000D0D0D082D083D0F0D0E023
:0108A3003222
:10096F00C297D296D295D294209305B2A03093FD20
:10097F00209205B2A13092FD209105B2A23091FDD7
:09098F00D297C296D295D29422AF
:0F0A2500120A437F017E00120A1312096F80F438
:030000000208A44F
:0C08A400787FE4F6D8FD75810D0208EBAA
:10093000EF8DF0A4A8F0CF8CF0A428CE8DF0A42EDB
:02094000FE2295
:10094200D083D082F8E4937012740193700DA3A344
:1009520093F8740193F5828883E473740293B5F07B
:0D096200067403936860E9A3A3A3A380D8E3
:1008B000020A25E493A3F8E493A34003F68001F22F
:1008C00008DFF48029E493A3F85407240CC8C33349
:1008D000C4540F4420C8834004F456800146F6DF18
:1008E000E4800B0102040810204080900A34E47E6A
:1008F000019360BCA3FF543F30E509541FFEE4930D
:10090000A360010ECF54C025E060A840B8E493A3D3
:10091000FAE493A3F8E493A3C8C582C8CAC583CAFE
:10092000F0A3C8C582C8CAC583CADFE9DEE780BEB6
:010A420000B3
:00000001FF
