:03000000020800F3
:0C080000787FE4F6D8FD75816E02084791
:080B5B007FBFDFEFF7FBFDFE99
:080B5200026C003CC101C180EE
:100AE000E4FDFCC3ED9FEC9E5015E4FBFA0BBB004C
:0F0AF000010AEB64794A70F50DBD00010C80E43A
:010AFF0022D4
:100ABC00C2B6C2B5E4FEEF5480C413131354012420
:100ACC00FF92B4EF25E0FFD2B6C2B60EBE08E7D255
:030ADC00B5C2B5EB
:010ADF0022F4
:100B0000E4FDFCC3ED9FEC9E5015E4FBFA0BBB002B
:0F0B1000010AEB64784A70F50DBD00010C80E41A
:010B1F0022B3
:100A0B007F407821E4F608DFFC7F40120944EF5465
:100A1B003FF5218005E522B5210A120944EF543F29
:100A2B00F52280F1120A97756203756B03756E02DE
:010A3B002298
:100A97007F01E5612411543FF561E4FEEEC3956ED5
:100AA700500F74212EF8E6B56104E4FF80030E8031
:040AB700EBEF60DC25
:010ABB002218
:10099100AF6BC296209308E56B64016002E4FFD25D
:1009A10096C296209106E56B60027F01D296C295B0
:1009B100209208E56B640360027F02D295C2972002
:1009C1009208E56B640260027F03D297EF656B606A
:0509D100048F628F6B32
:0109D60022FE
:1008F000AF6EEFD39400400F74202FF8E6FE742102
:100900002FF8A6061F80EBE5621460101460161421
:1009100060202403702DE52124388004E52124087B
:10092000543FF52122E521540770047407800D150A
:100930002122E5215407FFBF070774F92521F5217E
:030940002205216C
:010943002291
:100A6B00750C01E50CC3956E50107421250CF8E63E
:100A7B00B52103020A0B050C80E9E521B5610CE5F4
:0B0A8B006EC3943F5002056E120A97E4
:010A9600223D
:10088C007E087863E4F608DEFCE4FEEEC3956E5059
:10089C002C74212EF8E6FD131313541FF50CED5494
:1008AC0007FF7463250CF8C000E6FDA80774010867
:1008BC008002C333D8FC4DD000F60E80CEE5611318
:1008CC001313541FF50CE5615407FF7463250CF8E2
:1008DC00C000E6FEA8077401088002C333D8FC4EA2
:0308EC00D000F643
:0108EF0022E6
:1009D70020B217D3E56D940AE56C9400400C74F6C9
:1009E700256DF56D74FF356CF56C20B316C3E56D99
:1009F700943CE56C9400500B740A256DF56DE43555
:040A07006CF56C22FC
:0F0B390020B007300004B201C20030B002D20079
:010B4800228A
:090B490020B105120A0BC20122C1
:100B2000120B39120B4920010F1209911209D71229
:090B300008F0120A6B12088C2275
:100A3C00120A0B120B20E4FCECC3956DE4956C5080
:100A4C00F2E4FBE4FF120ABCEB900B5B93F58074B1
:0F0A5C00632BF8E6FF120ABC0BBB08E70C80D92E
:10080C00020A3CE493A3F8E493A34003F68001F2BC
:10081C0008DFF48029E493A3F85407240CC8C333ED
:10082C00C4540F4420C8834004F456800146F6DFBC
:10083C00E4800B0102040810204080900B52E47EEF
:10084C00019360BCA3FF543F30E509541FFEE493B1
:10085C00A360010ECF54C025E060A840B8E493A378
:10086C00FAE493A3F8E493A3C8C582C8CAC583CAA3
:10087C00F0A3C8C582C8CAC583CADFE9DEE780BE5B
:010B5A00009A
:10094400AC08AD09AE0AAF0B7810EC4D4E4F7004F5
:100954007CA57DA5C3EC13FCED13FDEE13FEEF1394
:10096400FF5010EC64CCFCED644CFDEE644EFEEFE5
:1009740064CEFFD8DF8C088D098E0A8F0BEE547F6E
:0D098400FE228E088F0974A5F50AF50B22DE
:00000001FF
