:100B09003F065B4F666D7D077F6F777C395E797134
:100AC200020B000002120000011100010F000110D0
:040AD2000F010A0006
:100AD700E4FDFCC3ED9FEC9E50070DBD00010C80AB
:010AE700F21C
:010AE80022EB
:040A3E00AB07AA0652
:100A4200E4F583F5827C007D0CAF03AE021209FF50
:0C0A5200C3E5829FE5839E5003A380E96A
:010A5E002275
:100A5F00D2AFD288D2A8D2A9438901D2A7D2A6E415
:0D0A6F00F512F513F50BF50CF50FD28C22E6
:0A0B1900120A5FE4F58075A0FF22C8
:100AAD00EF8EF0120A110ABB30CF00000ABEB2A0C1
:050ABD002275A0FF22DC
:100A9600C29720930F7F147E00120A3E209302B263
:070AA600A03093FDD297225E
:03000B00020A7C6A
:100A7C00C0E0C0D0B2A7758CFC758A67E511C39431
:0A0A8C003250020511D0D0D0E03244
:03000300020800F0
:10080000C0E0C0F0C083C082C0D075D000C000C0BE
:0308100006C00718
:10081300E4FEAF11758CFC758A67F511050FB2A65E
:10082300C3EF9432EE9400400B750FFE7512007502
:100833001300805BD3E50F6480F8748098502DE536
:100843000F6480949F5025C3EF9402EE9400403FC1
:10085300741F950FFF7E007401A807088005C3333A
:10086300CE33CED8F94213EE42128023C3E50F6490
:100873008094A0401A85120B85130C751200751312
:0F08830000750F00C2A5AF0CAE0B120AADD2A5C7
:10089200D007D006D000D0D0D082D083D0F0D0E024
:0108A2003223
:100AE900438910758DFC758B18D2ABD2AFD28E228B
:100AF900EFD3940F40027F0FEF900B0993F58022FB
:10092F00E4F514120B19D2A1D2A6D2A7120AE9AF7D
:10093F0010120AF9120A9620B10F30B1FDE50A70B4
:10094F00047F0180027F008F0A20B01130B0FDE5D7
:10095F0010C3940F50070510AF10120AF920B211EF
:10096F0030B2FDE510D3940040071510AF10120AF6
:10097F00F9E514B4320CE4F5147FA41200008E0DC7
:10098F008F0E0514C3E50E9464E50D94005004C258
:10099F00A180A1D3E50E9464E50D94004096D2A1F9
:0209AF00809234
:03001B000209B126
:0D09B100C0E0C083C082C0D075D000C00778
:1009BE00758DFC758B180509E50970020508B4E8FC
:1009CE0025E508B40320750800750900E50A6016D0
:1009DE00E510D39400400F1510AF10120AF9E51070
:0609EE007004B2A2F50A3C
:0B09F400D007D0D0D082D083D0E032FA
:030000000208A350
:0C08A300787FE4F6D8FD7581140208EAA5
:1009FF00EF8DF0A4A8F0CF8CF0A428CE8DF0A42E0C
:020A0F00FE22C5
:100A1100D083D082F8E4937012740193700DA3A374
:100A210093F8740193F5828883E473740293B5F0AB
:0D0A3100067403936860E9A3A3A3A380D813
:1008AF0002092FE493A3F8E493A34003F68001F227
:1008BF0008DFF48029E493A3F85407240CC8C3334A
:1008CF00C4540F4420C8834004F456800146F6DF19
:1008DF00E4800B0102040810204080900AC2E47EDD
:1008EF00019360BCA3FF543F30E509541FFEE4930E
:1008FF00A360010ECF54C025E060A840B8E493A3D5
:10090F00FAE493A3F8E493A3C8C582C8CAC583CAFF
:10091F00F0A3C8C582C8CAC583CADFE9DEE780BEB7
:010AD600001F
:00000001FF
