:03000000020A46AB
:0C0A4600787FE4F6D8FD758120020A8D4F
:100B6200E4FDFCC3ED9FEC9E5015E4FBFA0BBB00C9
:0F0B7200010AEB647D4A70F50DBD00010C80E4B3
:010B81002251
:100B82000A12C0F9A4B0999282F88090C100020FB3
:080B92000000011100010D3DFE
:10080000E4F51E758911758AB0758C3DD28DD28C38
:10081000758DED758B78C28FD28ED2AFD2ABD28A66
:10082000D2A9209723C290C291C292C293C294C20D
:1008300095C2B0C2B1C2B2C2B3309606D290D295C0
:1008400080E0D293D29280DAD3E50D648094A14007
:1008500045D290C291C292C293C294D295AF0DEF8D
:100860003395E0FEEF24E1FBEE34FFFA7C007D0AD5
:10087000AF03FE1209BB8F097C007D0AAF03AE02F5
:100880001209BB8D1CAF0DEF3395E0FEEF24DEFBAC
:10089000EE34FF02093AD3E50D648094A1504FE590
:1008A0000D6480949E4047D290C291C292C293D26E
:1008B00094C295AF0DEF3395E0FEEF24E1FFEE34E7
:1008C000FFFE7C007D0A1209BBAB078B09AF0DEF61
:1008D0003395E0FEEF24E1FFEE34FFFE7C007D0A5D
:1008E0001209BBAF058F1C8B0A8F1D020822D3E5AE
:1008F0000D6480949E5060C3E50D648094834057DE
:10090000C290C291D292D293C294C295AF0DEF33EE
:1009100095E0FEEF24FDFBEE34FFFA7C007D0AAF8C
:1009200003FE1209BB8F097C007D0AAF03AE0212E1
:1009300009BB8D1CE50DFB3395E0FA7C007D0AAF09
:1009400003FE1209BB8F0A7C007D0AAF03AE0212C0
:1009500009BB8D1D020822C3E50D6480948340030A
:10096000020822C3E50D648094805003020822C26D
:1009700090D291C292D293C294C295E50D75F00ABD
:10098000120999FFF509E50D75F00A120999AEF003
:090990008E1C8F0A8E1D02082244
:03000B00020B35B0
:100B3500C0E0C0D0C28CC28D758AB0758C3D0511E0
:100B4500E511B41411751100150DC3E50D648094FC
:0D0B5500805003750D3DD28CD0D0D0E03221
:03001B00020AD204
:100AD200C0E0C0D075D000C000C28EC28F758DED4F
:100AE200758B780508C2B0C2B1C2B2C2B3E508B410
:100AF2000108D2B0741225098018E508B40208D2A0
:100B0200B17412251C800BE508B4030CD2B2741226
:100B1200250AF8E6F5A08012E508B4040DD2B374F4
:100B220012251DF8E6F5A0750800D28ED000D0D0AF
:030B3200D0E032DE
:03001300020B9B42
:0D0B9B00C0E00510E5107002050FD0E0323B
:100A5200020800E493A3F8E493A34003F68001F2B2
:100A620008DFF48029E493A3F85407240CC8C333A5
:100A7200C4540F4420C8834004F456800146F6DF74
:100A8200E4800B0102040810204080900B82E47E77
:100A9200019360BCA3FF543F30E509541FFEE49369
:100AA200A360010ECF54C025E060A840B8E493A330
:100AB200FAE493A3F8E493A3C8C582C8CAC583CA5B
:100AC200F0A3C8C582C8CAC583CADFE9DEE780BE13
:010B9A00005A
:10099900C2D530F707B2D563F0FF05F030E70CB2E6
:1009A900D5F4048463F0FF05F080018430D502F4A6
:0209B900042216
:1009BB00C2D5EC30E709B2D5E4C39DFDE49CFCEE57
:1009CB0030E715B2D5E4C39FFFE49EFE1209F1C3D5
:1009DB00E49DFDE49CFC80031209F130D507C3E4D0
:0609EB009FFFE49EFE22C6
:1009F100BC000BBE0029EF8DF084FFADF022E4CCEA
:100A0100F875F008EF2FFFEE33FEEC33FCEE9DECB2
:100A1100984005FCEE9DFE0FD5F0E9E4CEFD22EDF8
:100A2100F8F5F0EE8420D21CFEADF075F008EF2F42
:100A3100FFED33FD4007985006D5F0F222C398FD33
:050A41000FD5F0EA22D0
:00000001FF
